:100000000C9462000C948A000C948A000C948A0070
:100010000C948A000C948A000C948A000C948A0038
:100020000C948A000C948A000C948A000C948A0028
:100030000C948A000C948C000C948A000C948A0016
:100040000C9486050C948A000C943D030C948B034D
:100050000C948A000C94CB000C948A000C948A00B7
:100060000C948A000C948A000000000024002700F1
:100070002A0000000000250028002B0000000000DE
:1000800023002600290004040404040404040202DA
:100090000202020203030303030301020408102007
:1000A0004080010204081020010204081020000012
:1000B0000007000201000003040600000000000029
:1000C0000000F70411241FBECFEFD8E0DEBFCDBF84
:1000D00011E0A0E0B1E0E6E6FCE002C005900D9280
:1000E000A031B107D9F711E0A0E1B1E001C01D9244
:1000F000A13FB107E1F710E0C4ECD0E004C02297C3
:10010000FE010E942D06C23CD107C9F70E944D0591
:100110000C9431060C9400001F920F920FB60F92B0
:1001200011248F939F93AF93BF9380911B01909164
:100130001C01A0911D01B0911E010196A11DB11DD0
:1001400080931B0190931C01A0931D01B0931E018D
:10015000BF91AF919F918F910F900FBE0F901F9005
:100160001895F894ECE7F0E0108280818064808339
:10017000808180628083EAE7F0E080818062808312
:1001800080818068808380818860808380818064B2
:100190008083789408951F920F920FB60F921124C6
:1001A0002F933F934F935F936F937F938F939F937F
:1001B000AF93BF93EF93FF93809111019091120140
:1001C00020917900820F911D90931201809311016B
:1001D000809110018F5F8093100180911F018F5FCC
:1001E00080931F01815080FF03C087E061E002C05F
:1001F00087E060E00E94E802809110018031D8F130
:10020000809111019091120124E0969587952A958D
:10021000E1F78093130180911B0190911C01A09143
:100220001D01B0911E018093140190931501A093BC
:100230001601B093170180918400909185009093EE
:10024000190180931801109212011092110110925D
:10025000100181E080931A0180911F018F5F8093CC
:100260001F01815080FF03C082E061E002C082E094
:1002700060E00E94E802FF91EF91BF91AF919F91E2
:100280008F917F916F915F914F913F912F910F903F
:100290000FBE0F901F901895CF92DF92FF920F9391
:1002A0001F93DF93CF93CDB7DEB727970FB6F894A0
:1002B000DEBF0FBECDBF29833A834B835C836D8342
:1002C0007E838F83602F772767FD709586EC91E0A2
:1002D0000E94B7048E010F5F1F4FFF2438E0C32E2A
:1002E000D12CCC0EDD1EF80161918F01F60E77271F
:1002F00067FD709586EC91E00E94B7040C151D0512
:1003000091F786EC91E06F2D0E94B70427960FB607
:10031000F894DEBF0FBECDBFCF91DF911F910F913B
:10032000FF90DF90CF9008950F9380911A0188235A
:1003300079F13FB7F8942091130120933701809110
:10034000140190911501A0911601B09117018093AD
:10035000380190933901A0933A01B0933B01809109
:10036000180190911901782F90933D0180933C01E1
:1003700010921A013FBF30913801409139015091DC
:100380003A0160913B0180913D0108E40E944C01DB
:1003900086EC91E00E944D0402970CF4B0C086EC0C
:1003A00091E00E947E048093360186EC91E00E94E9
:1003B0007E04982F80933501809136018035B1F508
:1003C00090932E018FB7F89420911B0130911C015E
:1003D00040911D0150911E0120932F013093300157
:1003E0004093310150933201209184003091850077
:1003F00030933401209333018FBF90FF03C08DE011
:1004000061E002C08DE060E00E94E80220912E01D0
:1004100030912F01409130015091310160913201B2
:10042000709133018091340100E567C0863569F52C
:1004300082E0809327012FB7F89480911B0190915F
:100440001C01A0911D01B0911E0180932801909381
:100450002901A0932A01B0932B01809184009091EF
:100460008500782F90932D0180932C012FBF209130
:100470002701309128014091290150912A01609172
:100480002B0180912D0106E538C08C34C1F59923EC
:1004900019F08DE061E002C08DE060E00E94E802AA
:1004A00080913501809320012FB7F89480911B0132
:1004B00090911C01A0911D01B0911E01809321011A
:1004C00090932201A0932301B09324018091840092
:1004D00090918500782F90932601809325012FBF5E
:1004E000209120013091210140912201509123015E
:1004F00060912401809126010CE40E944C010F912F
:1005000008958DE061E00E94A9028DE060E00E9404
:10051000E80282E061E00E94A90287E061E00E94B7
:10052000A90286EC91E040E052EC61E070E00E94AC
:10053000C603F89410928000E1E8F0E01082808118
:100540008360808381E080936F0078940E94B10083
:100550000895CF93DF93482F50E0CA0186569F4FEE
:10056000FC0134914A575F4FFA018491882369F165
:1005700090E0880F991FFC01E859FF4FA591B491B5
:10058000FC01EE58FF4FC591D491662351F42FB76B
:10059000F8948C91932F909589238C93888189234B
:1005A0000BC0623061F42FB7F8948C91932F909523
:1005B00089238C938881832B88832FBF06C09FB7A4
:1005C000F8948C91832B8C939FBFDF91CF910895EA
:1005D000482F50E0CA0182559F4FFC012491CA0167
:1005E00086569F4FFC0194914A575F4FFA01349110
:1005F000332309F440C0222351F1233071F0243019
:1006000028F42130A1F0223011F514C02630B1F0C9
:100610002730C1F02430D9F404C0809180008F7756
:1006200003C0809180008F7D8093800010C084B5CE
:100630008F7702C084B58F7D84BD09C08091B000E2
:100640008F7703C08091B0008F7D8093B000E32F3F
:10065000F0E0EE0FFF1FEE58FF4FA591B4912FB7BA
:10066000F894662321F48C919095892302C08C9193
:10067000892B8C932FBF089508951F920F920FB668
:100680000F9211242F933F934F938F939F93EF9348
:10069000FF938091C00082FD1DC04091C600209153
:1006A0007E0130917F012F5F3F4F2F73307080911B
:1006B0008001909181012817390771F0E0917E0146
:1006C000F0917F01E25CFE4F408330937F012093E5
:1006D0007E0102C08091C600FF91EF919F918F91A2
:1006E0004F913F912F910F900FBE0F901F90189533
:1006F000E091D201F091D301E05CFF4F81919191A3
:1007000020813181821B930B8F739070892B11F0A4
:100710000E943C0308951F920F920FB60F9211246E
:100720002F933F938F939F93EF93FF932091C20159
:100730003091C3018091C4019091C50128173907F8
:1007400031F48091C1008F7D8093C10014C0E0918D
:10075000C401F091C501EE57FE4F20818091C40184
:100760009091C50101968F7390709093C50180930D
:10077000C4012093C600FF91EF919F918F913F910B
:100780002F910F900FBE0F901F901895AF92BF92B0
:10079000DF92EF92FF920F931F93CF93DF93EC01C1
:1007A0007A018B01DD24403081EE580780E0680734
:1007B00080E0780711F0DD24D39491E0A92EB12CCC
:1007C000EC89FD89DD2069F0C50108A002C0880F11
:1007D000991F0A94E2F7808360E079E08DE390E06E
:1007E00005C0108260E874E88EE190E0A8019701EE
:1007F0000E94090621503040404050405695479590
:100800003795279580E12030380720F0DD2011F062
:10081000DD24D6CFE889F9893083EA89FB892083F2
:1008200019A2EE89FF89408121E030E0C9010C8CDA
:1008300002C0880F991F0A94E2F7482B4083EE8983
:10084000FF894081C9010D8C02C0880F991F0A944D
:10085000E2F7482B4083EE89FF894081C9010E8C65
:1008600002C0880F991F0A94E2F7482B4083EE8953
:10087000FF8980810F8C02C0220F331F0A94E2F798
:10088000209528232083DF91CF911F910F91FF9016
:10089000EF90DF90BF90AF900895DC011C96ED9132
:1008A000FC911D97E05CFF4F2191319180819181F6
:1008B000281B390B2F733070C9010895DC011C9679
:1008C000ED91FC911D97E05CFF4F20813181E05458
:1008D000F040DF01AE5BBF4F8D919C9111972817BF
:1008E000390719F42FEF3FEF07C08D919C91E80F66
:1008F000F91F8081282F30E0C9010895DC011C9682
:10090000ED91FC911D97E05CFF4F20813181E05417
:10091000F040DF01AE5BBF4F8D919C91119728177E
:10092000390719F42FEF3FEF10C08D919C9111976B
:10093000E80FF91F20818D919C91119701968F737B
:10094000907011969C938E9330E0C9010895DC015C
:1009500091968C919197882339F05496ED91FC9162
:100960005597808186FFF9CF91961C920895CF9379
:10097000DF93EC01EE85FF85E05CFF4F2081318144
:10098000E054F0402F5F3F4F2F733070DF01AE5BBC
:10099000BF4F8D919C91119728173907D1F3E05CD7
:1009A000FF4F80819181E054F040E80FF91F608390
:1009B000EE85FF85E05CFF4F31832083EE89FF8960
:1009C000208181E090E00F8C02C0880F991F0A946B
:1009D000E2F7282B208381E089A3EC89FD898081BF
:1009E0008064808381E090E0DF91CF910895109240
:1009F000C9011092C80188EE93E0A0E0B0E08093B6
:100A0000CA019093CB01A093CC01B093CD0184E0B7
:100A100091E09093C7018093C6018EE391E090939B
:100A2000D3018093D20182E891E09093D501809325
:100A3000D40185EC90E09093D7018093D60184ECAB
:100A400090E09093D9018093D80180EC90E090934E
:100A5000DB018093DA0181EC90E09093DD018093DB
:100A6000DC0182EC90E09093DF018093DE0186EC64
:100A700090E09093E1018093E00184E08093E201B3
:100A800083E08093E30187E08093E40185E0809335
:100A9000E50181E08093E6010895CF93DF930E9402
:100AA000CE050E948102C8E7D3E00E9494012097FE
:100AB000E1F30E947803F9CFCF92DF92EF92FF9299
:100AC0000F931F93CF93DF937C016B018A01C0E0EA
:100AD000D0E00FC0D6016D916D01D701ED91FC9171
:100AE0000190F081E02DC7010995C80FD91F015071
:100AF00010400115110571F7CE01DF91CF911F91C3
:100B00000F91FF90EF90DF90CF9008951F920F927A
:100B10000FB60F9211242F933F938F939F93AF9310
:100B2000BF938091EC019091ED01A091EE01B09105
:100B3000EF013091F0010196A11DB11D232F2D5F12
:100B40002D3720F02D570196A11DB11D2093F001E6
:100B50008093EC019093ED01A093EE01B093EF012F
:100B60008091E8019091E901A091EA01B091EB0137
:100B70000196A11DB11D8093E8019093E901A09316
:100B8000EA01B093EB01BF91AF919F918F913F919B
:100B90002F910F900FBE0F901F901895789484B5E9
:100BA000826084BD84B5816084BD85B5826085BD69
:100BB00085B5816085BDEEE6F0E08081816080834F
:100BC000E1E8F0E010828081826080838081816032
:100BD0008083E0E8F0E0808181608083E1EBF0E0F9
:100BE000808184608083E0EBF0E08081816080839D
:100BF000EAE7F0E080818460808380818260808386
:100C00008081816080838081806880831092C100B0
:100C10000895A1E21A2EAA1BBB1BFD010DC0AA1F3D
:100C2000BB1FEE1FFF1FA217B307E407F50720F055
:100C3000A21BB30BE40BF50B661F771F881F991FD0
:100C40001A9469F760957095809590959B01AC0119
:100C5000BD01CF010895EE0FFF1F0590F491E02D27
:060C60000994F894FFCF97
:100C660000000000B7045C054D047E045E04A70482
:00000001FF
